:020000040800F2
:10000000F005002005010008EF250008FB18000896
:10001000ED250008B9090008852800080000000047
:10002000000000000000000000000000132600088F
:10003000190A000800000000112600081526000813
:100040001F0100081F0100081F0100081F01000810
:100050001F0100081F0100081F0100081F01000800
:100060001F0100081F0100081F0100081F010008F0
:100070001F0100081F0100081F0100081F010008E0
:100080001F0100081F0100081F0100081F010008D0
:100090001F0100081F0100081F0100081F010008C0
:1000A0001F0100081F0100081F0100081F010008B0
:1000B0001F0100081F0100081F0100081F010008A0
:1000C0001F0100081F0100081F0100081F01000890
:1000D0001F0100081F0100081F0100081F01000880
:1000E0001F0100081F0100081F010008DFF810D0E1
:1000F00000F050FC00480047613E0008AFF300806C
:10010000F00500200648804706480047FEE7FEE766
:10011000FEE7FEE7FEE7FEE7FEE7FEE7FEE7FEE7B7
:1001200069260008ED000008202A04DB203A21FAA5
:1001300002F00021704721FA02F3D040C2F1200200
:100140009140084319467047D2B201E000F8012BF4
:10015000491EFBD270470022F6E710B513460A4647
:1001600004461946FFF7F0FF204610BDF0B480EAC0
:100170000102D40F4200B2EB410F02D20246084600
:1001800011464A0042D0C30DDDB2C1F3C752AD1AC9
:10019000202D35DAC1F3160141F4000204B15242B8
:1001A000C5F1200602FA06F12A411044B3EBD05FF4
:1001B00023D0C4B1012DA0EBC35009DCF0BC4FF03B
:1001C000004202EAC352DBB200F5000000F0A6BA1A
:1001D000400000F1807000EBC350A0F1807040EA55
:1001E000D170490009E0490841EAC071A0EBC35051
:1001F00000F50000400800EBC350F0BC00F085BAE9
:100200006142012202EB4101001BF6E7F0BC70479E
:1002100081F00041AAE780F00040A7E780EA0102F0
:1002200010B502F00043400022D04A001FD0010E5A
:1002300001EB1261C0F35600C2F3560240F4000015
:1002400042F40002A0FB022000047F39140400D015
:10025000401C50EA124001D44000491EC2B20C06B4
:1002600004EBD010401C4008802A02D003E000209C
:1002700010BD20F00100002900DA0020184310BD55
:10028000420005D0C0F3C7525242914201DC002027
:10029000704700EBC15070472DE9FE4F804681EA60
:1002A0000300C00F0C46009021F0004123F00045F0
:1002B000B8EB0200A94105D24046214690461C46B3
:1002C0000B46024623F00040104347D0270DC7F3EA
:1002D0000A00C3F30A510290401A019040286BDAD9
:1002E000C3F3130040F4801B0098924620B1002312
:1002F000D2EB030A63EB0B0B01985946C0F14002A5
:10030000504600F0E1F906460D4650465946019A1E
:1003100000F0E9F910EB08006141002487EA11526E
:1003200084EAE7731A4340D0009A62B3019A012A23
:100330004FEA075215DC001B61EB02014FF000424F
:1003400002EA0752CDE90042001C41F58011324615
:100350002B4600F020FA03B0BDE8F08F404621465E
:10036000F9E7001B61EB0201001C41F58013001846
:100370005B412018A2F5001747EB030140EAD57056
:10038000B6196D4111E06D084FEA360645EAC075B1
:100390004FEA0752001B61EB0201001C41F580117E
:1003A00049084FEA30000019514132462B4603B04C
:1003B000BDE8F04F00F0E0B90098012240000023B2
:1003C000D0EB020263EBE073009821464FEAE07441
:1003D000B8EB000061EB0401E9E783F000435BE761
:1003E00081F0004158E72DE9FE4F81EA030404F053
:1003F000004421F0004100944FF0000B23F0004333
:1004000050EA01045ED052EA03045BD0C3F30A54FD
:10041000C1F30A552C44A4F2F3340194A0FB025416
:10042000C1F3130141F48011C3F3130343F48013A8
:1004300001FB024400FB034E840A970A44EA8154FC
:1004400047EA8357A4FB076802958D0A05FB0785D9
:100450004FEA932C04FB0C542705029D4FEA0658E3
:1004600047EA1637B5EB08056EEB070C870E920EC0
:1004700047EA811742EA8312A7FB0201B6EB0B01A0
:1004800064EB00042B0D43EA0C335E1844EB1C5064
:10049000DA465146E7FB0201C5F313044FEA0B337A
:1004A00043EA14534FEA0432019C43EA0603A4F1E1
:1004B0000C040294009CCDE900B400F06CF903B088
:1004C000BDE8F08F00200146F9E72DE9F04D81EA03
:1004D000030404F0004B21F0004514464FF0000ADD
:1004E00023F0004150EA050220D054EA01021DD059
:1004F000C5F30A570246C5F31303C1F31300C1F352
:100500000A5640F4801543F48013A7EB0608101B2D
:10051000D64608F2FD3873EB050002D308F1010856
:1005200001E092185B41B8F1000F03DA00200146A8
:10053000BDE8F08D00204FF48011064684460EE0A1
:10054000171B73EB050705D3121B63EB050306436B
:100550004CEA010C49084FEA300092185B4150EA1E
:100560000107EDD152EA030012D082EA040083EAC7
:100570000501084305D0101BAB4106D20122002320
:1005800006E000224FF0004302E06FF0010253103A
:100590001AEB06004CEB085110EB0A0041EB0B0183
:1005A000BDE8F04D00F0E8B8C10F80EAE070084403
:1005B000CA079623002100F0B1B80EB5C10F80EA3A
:1005C000E0700844CA07002140F233438DE80E0072
:1005D0000A460B4600F0DFF803B000BD00F0004211
:1005E00030F000400AD0C10D01F56071C0F3160073
:1005F00042EA0151C20840071143704700200146FA
:10060000704701F0004330B421F0004150EA01028C
:1006100006D00A0DA2F56072C1F31301002A02DCB4
:1006200030BC00207047440F44EAC104C100E01808
:1006300030BC00EBC25000F068B830B50B46014644
:1006400000202022012409E021FA02F59D4205D371
:1006500003FA02F5491B04FA02F52844151EA2F11B
:100660000102F1DC30BD2DE9F05F05460020924625
:100670009B4688460646814640241BE02846414664
:1006800047462246FFF750FD53465A46C01A91414D
:1006900010D311461846224600F016F82D1A67EBC3
:1006A00001084F4622460120002100F00DF817EB0B
:1006B00000094E41201EA4F10104DFDC484631460A
:1006C0002A464346BDE8F09F202A04DB203A00FA80
:1006D00002F1002070479140C2F1200320FA03F399
:1006E000194390407047202A06DBCB17203A41FA85
:1006F00002F043EAE07306E041FA02F3D040C2F1AF
:10070000200291400843194670470029A8BF70474E
:10071000401C490008BF20F00100704710B4B0FA37
:1007200080FC00FA0CF050EA010404BF10BC7047D2
:1007300049B1CCF1200421FA04F411FA0CF118BFEC
:10074000012121430843A3EB0C01CB1D4FEA0061BB
:100750004FEA102042BF002010BC704700EBC3508E
:1007600010440029A4BF10BC7047401C490008BFBA
:1007700020F0010010BC704710B5141E73F1000486
:1007800008DA401C41F1000192185B411A4301D183
:1007900020F0010010BD2DE9F04D92469B4611B1AD
:1007A000B1FA81F202E0B0FA80F220329046FFF70F
:1007B0008BFF04460F4640EA0A0041EA0B0153460C
:1007C0005A46084313D0114653EA010019D0C8F124
:1007D00040025046FFF7A8FC05460E4650465946D3
:1007E0004246FFF771FF084305D0012004E0204690
:1007F0003946BDE8F08D0020054346EAE0762C43FB
:1008000037430A986305E40AA0EB08000022FD0ABA
:1008100044EA47540A3002D500200146E9E70105C1
:1008200010196941DDE9084500196941BDE8F04D3D
:10083000A2E770B521F0004303430CD0C1F30A5581
:100840000024D5EB040564EB0403D617AD1AB341BD
:1008500002DB0020014670BD201841EB025170BD43
:100860002DE9F04D00231A461B1A8A4103DB0020B4
:100870000146BDE8F08DC1F30A52C1F3130141F402
:1008800080154FF0000BD10702D100186D41521EA8
:100890000027044640F2FF11384601EB620A3E464B
:1008A0008046024600204FF48011FFF73DFCC2193C
:1008B0007141BB1846EB0100B4EB030C75EB000C67
:1008C00004D3E41A65EB000517460E46241908F117
:1008D00001006D4180463428E3DDF91946EB06003E
:1008E000091BA84103D24FF0FF32134601E000225A
:1008F00013461BEB070046EB0A51BDE8F04DFFF72E
:100900003BBFC1F30A52C1F3130140F2FF3341F47C
:1009100080119A4202DA00200146704740F23343C8
:100920009A42A2F2334202DC5242FFF7FDBBFFF7CC
:10093000CBBE000030B5041E71F1000404DB4FF0A3
:100940000044404264EB0101141E73F1000405DB16
:100950001C464FF00043524263EB04038B4208BF36
:10096000824230BD30B5041E71F1000404DB4FF04B
:100970000044404264EB0101141E73F1000405DBE6
:100980001C464FF00043524263EB0403994208BFF8
:10099000904230BD064C074D06E0E06840F0010390
:1009A00094E8070098471034AC42F6D3FFF7A2FB57
:1009B000A4410008C4410008FEE700001FB5102351
:1009C0008DF80C00012203A98DE80E0013460246A3
:1009D00004480188044800F0B7F99DF80C0004B001
:1009E00010BD000000000020580100201FB50022AB
:1009F00003928DF80C101023012203A98DE80E003C
:100A00001346024602480188024800F0ADFA1FBDB5
:100A100000000020580100207047704770B5044660
:100A200000F0ECF80546601C02D00448007804444D
:100A300000F0E4F8401BA042FAD370BD9000002003
:100A40002DE9F84FDFF890A100220AF1040B1446BB
:100A500001274FF00F090BF1040E00BF0B6807FAD6
:100A600004F52B40AB4274D1DFF870C14E68A6EBA1
:100A70000C0866452BD00DDC032E34D005DC36B3D4
:100A8000012E19D0022E2FD11BE0112E16D0122EBE
:100A90002AD119E0B8F5881F19D006DCB8F5803FD7
:100AA00015D0B8F5801F1FD111E0B8F5001F0ED08A
:100AB000B8F5041F18D10AE0CA6815E0CA68121D0B
:100AC00012E0CA6808320FE0CA680C320CE08A688B
:100AD0002AB1012A4FF0080203D0456104E0042244
:100AE00002E0056100E00022FF2B01D8064601E08C
:100AF00000F104064FEA840501D9A5F12005D6F8D6
:100B000000C009FA05F82CEA080C02FA05F54CEACF
:100B1000050CC6F800C04D68ED0057D5304DAE69E4
:100B200046F00106AE61AD6924F0030605F001054B
:100B300000952C4D06EB050CDCF80850A6074FEA93
:100B4000167809FA08F6B543274EB04202D10026BE
:100B500010E03BE0254EB04201D101260AE0244ED0
:100B6000B04201D1022605E0224EB04201D1032657
:100B700000E0042606FA08F62E43CCF808604D681B
:100B8000DAF80060ED03554601D51E4300E09E43B0
:100B90002E604D68DBF80060AD035D4601D51E4355
:100BA00000E09E432E604D68DEF80060ED02754661
:100BB00001D51E4300E09E432E604D68AD020E4DF0
:100BC0002E6801D51E4300E09E432E60641C102C4D
:100BD000FFF444AFBDE8F88F00040140000011109D
:100BE000001002400000014000080140000C0140DC
:100BF00000100140001401400C04014001488068CD
:100C0000704700009000002070B504001BD094F8DD
:100C10003D00002520B984F83C50204600F042FAFF
:100C2000242084F83D002068016821F00101016062
:100C300000F0B0FB404A6168914201D83F4900E0B2
:100C40003F49884201D2012070BD3E492368B0FB74
:100C5000F1F159606368934206D94FF49673594392
:100C60004FF47A73B1FBF3F12368491C1962616890
:100C7000914210D84900401EB0FBF1F2521CC2F361
:100C80000B02042A01D2042022E0B0FBF1F0401C48
:100C9000C0F30B001CE0A368CBB301EBC10202EB75
:100CA0000116421EB2FBF6F2521C42F480421205BB
:100CB00036D06BB301EBC10202EB0111401EB0FB59
:100CC000F1F0401CC0F30B0040F4804040F40040C1
:100CD0002168C861D4E90701084321680860D4E9A4
:100CE0000310084321688860D4E90501084321689E
:100CF000C8602068016841F001010160256420207E
:100D000084F83D00256384F83E50002070BD00E06B
:100D100008E001EB4106421EB2FBF6F2521CC6E7A8
:100D20000120D5E701EB4101401EB0FBF1F0401C72
:100D3000C0F30B00CAE70000A086010080841E00FB
:100D400000093D0040420F002DE9FF4F83B09A4655
:100D5000DDE9118793460446DDF84090FFF74EFF2A
:100D6000054694F83D00202872D1192301227B49C1
:100D70002046009500F0C5FE0028F5D194F83C000F
:100D8000012865D0012084F83C0020680168C9076B
:100D900003D1016841F0010101602068016821F47C
:100DA00000610160222084F83D00402084F83E006C
:100DB00000262664C4F82490A4F82A806848E062DB
:100DC000608D2085CDE9007553465A46204604992A
:100DD00000F0A8FD28B1206C84F83C60042851D0B4
:100DE00075E0208DDFF87C8168B1012814D00228DD
:100DF000206801681ED041F480610160206841696B
:100E0000806900909BE020684169816900910168D8
:100E100041F40071016092E02068016821F4806172
:100E2000016072B62068416981690091016841F4EE
:100E300000710AE041F40061016072B62068416906
:100E400081690091016821F48061016062B676E0F9
:100E500081E0032850D801280BD002283B464FF0F0
:100E6000000241462046009512D000F04AFE70BBB9
:100E700013E02A463946204600F0B8FE30B1206C17
:100E8000202824D0012007B0BDE8F08F20684BE077
:100E900000F037FED8B972B61BE02068016821F473
:100EA0008061016072B620680169606A421C6262FA
:100EB0000170208D401E2085608D401E60853B4660
:100EC000002241462046009500F01BFE08B1032099
:100ED000D9E72068016841F4007101602068016968
:100EE000606A421C62620170208D401E2085608D08
:100EF000401E608562B6C9E72A463946204600F0A2
:100F000075FE0028BBD120680169606A421C6262DC
:100F10000170208D401E2085608D401E60852068F8
:100F20004169C94349070AD40169606A421C626287
:100F30000170208D401E2085608D401E6085208DB3
:100F4000002886D1202084F83D0084F83E6084F893
:100F50003C60002097E7022095E7000002001000A7
:100F60000000FFFF040001002DE9FF4F83B09A4607
:100F7000DDE9118793460446DDF84090FFF73EFE19
:100F8000064694F83D0020287DD1192301224349CB
:100F90002046009600F0B5FD00287CD194F83C0076
:100FA000012878D0012084F83C0020680168C90736
:100FB00003D1016841F0010101602068016821F45A
:100FC00000610160212084F83D00402084F83E004B
:100FD00000252564C4F82490A4F82A803048E062F3
:100FE000608D2085CDE9007653465A462046049907
:100FF00000F010FD80B3206C84F83C50042848D0E9
:1010000008E032463946204600F021FE30B1206C1F
:10101000042839D0032007B0BDE8F08F606A411C76
:101020006162216800780861208D401E80B22085B1
:10103000618D491E618521684A69D24352070BD4EC
:1010400068B1606A421C626200780861208D401EAF
:101050002085608D401E6085208D0028D1D13246CC
:101060003946204600F026FD0028D0D154F83D0B2B
:10107000016841F400710160202004F81E09E57741
:1010800065770020C7E706E02068016841F4007139
:1010900001600120BFE70220BDE700000200100050
:1010A0000000FFFF10B586B0002100910191029170
:1010B000039100681349884222D1134CA06940F083
:1010C0000800A061A069694600F0080004904FF490
:1010D0004070009012200190032003900B48FFF70E
:1010E000AFFC0B48416841F0E06141F00201416012
:1010F000E06940F40010E061E06900F40010049041
:1011000006B010BD0054004000100240000C014029
:1011100000000140024881680278114481607047F4
:1011200090000020074810B5016841F010010160EF
:10113000032000F067F8002000F006F800F024F823
:10114000002010BD0020024070B50D4D04464FF444
:101150007A712878B1FBF0F00A490968B1FBF0F028
:1011600000F0F0FA48B9102C07D200222146501E98
:1011700000F028F800206C6070BD012070BD0000F8
:10118000900000209C0000200C4808B5816941F0C7
:1011900001018161816901F001010091C16941F0A2
:1011A0008051C161C06900F08050009004484168DE
:1011B00021F0E06141F00071416008BD0010024083
:1011C00000000140F0B40E4B1B680C46C3F3022331
:1011D000C3F10705042D00D90425191D072901D2E3
:1011E000002300E0DB1E012606FA05F1491E21401E
:1011F00099409E40761E16403143F0BC01F0F8B98C
:101200000CED00E0064900F0070208684FF6FF0306
:10121000184040EA0220034A10430860704700006B
:101220000CED00E00000FA052DE9F047DFF85481ED
:1012300005460E46D8F8000000F00700B0420CD278
:10124000D8F8001021F007013143C8F80010D8F891
:10125000000000F00700B0426FD128684A4C8107B7
:1012600012D5400703D5606840F4E06060602878DC
:10127000000703D5606840F4605060606068A9684A
:1012800020F0F000084360602878C00744D0686808
:10129000012816D02168022816D0890700294CDAC7
:1012A000616821F0030101436160FFF7A7FC6968F1
:1012B000074641F2883001290ED00229814618D014
:1012C00026E021688903E9E78901E7E7FFF796FC53
:1012D000C11B494501D918E081466068C0F381000F
:1012E0000128F3D118E000BFFFF788FCC11B494576
:1012F0000BD86068C0F381000228F5D10CE000BF74
:10130000FFF77CFCC11B494502D90320BDE8F087EB
:10131000606810F00C0FF3D1D8F80010404601F0CF
:101320000701B1420BD9016821F007013143016087
:10133000006800F00700B04201D00120E6E72878FD
:10134000400705D56068E96820F4E0600843606004
:101350002878000706D56068296920F4605040EAC3
:10136000C100606000F036F86168084AC1F30311FB
:10137000515CC840064908600020FFF7E5FE0020E8
:10138000C4E7000000200240001002403440000882
:101390009C0000200448054900684968044AC1F3DC
:1013A0000221515CC84070479C00002000100240A0
:1013B000444000080448054900684968044AC1F3EC
:1013C000C221515CC84070479C00002000100240C0
:1013D0004440000812A185B00FC98DE80F0014A089
:1013E000144A006804905168134801F00C03042B60
:1013F00010D0082B0ED1C1F38343C9031DF803009D
:101400000AD5516804AAC1F34041515C0A4A5043CD
:10141000B0FBF1F005B0704708494843FAE7000017
:1014200002030405060708090A0B0C0D0E0F101025
:10143000010200000010024000127A0000093D0085
:101440002DE9F84F04460078B94DC00748D06868C8
:10145000C0F38100012807D06868C0F3810002282A
:1014600009D16868C00306D52868800338D560684C
:1014700000286FD034E06068B0F5803F0BD010B129
:10148000B0F5A02F11D0286820F48030286028689B
:1014900020F4802002E0286840F4803028606068F2
:1014A00088B1FFF7ABFB064609E0286840F48020CE
:1014B0002860F0E7FFF7A2FB801B642875D8286836
:1014C0008003F7D50CE0FFF799FB064605E000BF67
:1014D000FFF794FB801B6428F0D828688003F7D4BA
:1014E0002078944E80074FF001094FF000083BD55B
:1014F000686810F00C0F07D06868C0F381000228FC
:1015000009D16868C00306D42868800714D520690B
:1015100001281FD110E02069B0B1C6F80090FFF794
:101520006DFB074605E000BFFFF768FBC01B022804
:10153000C4D828688007F7D52868616920F0F800CA
:1015400040EAC10028600FE0C6F80080FFF756FBB4
:10155000074606E0E9E000BFFFF750FBC01B02288A
:1015600023D828688007F7D4207800072CD5724844
:10157000A169D9B1C0F80090FFF740FB074604E02D
:10158000FFF73CFBC01B02280FD8686A8007F7D51D
:101590006A484FF4FA510068B0FBF1F0009000BFC8
:1015A0000098411E0091FAD20EE080E0C0F8008061
:1015B000FFF724FB074604E0FFF720FBC01B0228CF
:1015C00075D8686A8007F7D42078400760D5E86945
:1015D0000027C00008D4E86940F08050E861E8695D
:1015E000012700F08050009055480168C90513D4C8
:1015F0000168834641F480710160FFF7FFFA82467B
:1016000006E000BFFFF7FAFAA0EB0A0064284ED804
:10161000DBF80000C005F5D5E06801280AD008B164
:10162000052813D0286A20F001002862286A20F0DB
:10163000040002E0286A40F001002862E06841F2FC
:10164000883B98B1FFF7DAFA82460BE0286A40F04F
:1016500004002862EEE700BFFFF7D0FAA0EB0A0112
:1016600059455AD8286A8007F6D50CE0FFF7C6FA24
:10167000824605E0FFF7C2FAA0EB0A0159454CD8B3
:10168000286A8007F6D41FB1E86920F08050E8612D
:10169000E06988B36968C1F38101022945D0022855
:1016A000C6F8608004D0FFF7A9FA044638E034E0B9
:1016B000FFF7A4FA074604E0FFF7A0FAC01B0228D0
:1016C0002BD828688001F7D4206AB0F5803F05D177
:1016D0006868A16820F4003008436860D4E9080114
:1016E0000843696821F4741108436860C6F8609083
:1016F000FFF784FA044606E015E000BFFFF77EFA24
:10170000001B022809D828688001F7D50BE000BF2C
:10171000FFF774FA001B022802D90320BDE8F88FF6
:1017200028688001F4D40020F8E70120F6E70000E3
:101730000010024000004242800442429C0000200F
:101740000070004010B5401EB0F1807F01D3012031
:1017500010BD4FF0E02460610F21601700F048FFDA
:101760000020A06107202061002010BD70B504009A
:1017700004D094F83900002510B106E0012070BDB6
:1017800084F83850204600F023F8242084F83900EB
:101790002068C16821F40051C160204600F088FF34
:1017A0002068016921F4904101612068416921F0BC
:1017B0002A0141612068C16841F40051C160E563BC
:1017C000202084F8390084F83A00002070BD000021
:1017D00030B585B00024009401940294039400680D
:1017E0001449884223D11448C16941F40031C161D0
:1017F000C16901F400310491816941F00401816102
:1018000080690E4D00F00400049004200090022036
:1018100001900320039069462846FFF711F908203C
:10182000CDE90004694628460294FFF709F905B09E
:1018300030BD00000044004000100240000801409C
:101840002DE9F843044690F839001F4616460D4628
:10185000202850D1A5B19EB194F8380001284AD073
:10186000012084F838004FF00008C4F83C802120A3
:1018700084F83900FFF7C2F9A6848146E68426E0A1
:101880000120BDE8F883E08C401EE084A0684B4650
:10189000B0F5805F4FF000024FF0800120460097C6
:1018A00003D000F0BDFFE8B90DE000F0B9FFC8B902
:1018B00028882168C0F308004860206908B16D1CC1
:1018C00005E0AD1C03E0216815F8010B4860E08CD1
:1018D0000028D8D14B46002240212046009700F036
:1018E0009FFF08B10320CCE7202084F8390084F85A
:1018F00038800020C5E70220C3E7FEE701684A6997
:10190000D24352050CD46FF480624A610421016411
:10191000002140F8301F20224273017301207047DC
:10192000002070472DE9F84F0446006889460B9D5A
:1019300001689846174641F480610160206801689B
:1019400041F48071016000954FF0011A0022514668
:1019500020460A9B00F0D5F8F0BB216809F0FE0094
:1019600008610AF1010B2B46594620460A9A00F0FD
:10197000F9F818B1206C042812D03AE020684169C7
:10198000806900902A4620460A9900F060F950B11B
:10199000206C04282DD12068016841F40071016099
:1019A0000120BDE8F88FFEB2B8F1010F09D021681F
:1019B000380A08612A4620460A9900F048F90028AA
:1019C000E6D1206806612A4620460A9900F03FF9D0
:1019D0000028DDD1206800E00BE0016841F480714F
:1019E000016000950022514620460A9B00F089F8CC
:1019F00008B10320D5E7216809F0FF0040F001009D
:101A000008612B46594620460A9A00F0ABF8002898
:101A1000B0D1C6E72DE9F843044600680D46DDE97C
:101A2000089701689846164641F4807101604B465C
:101A300000224FF001112046009700F062F8E8B94B
:101A4000216805F0FE0008613B464A4618492046D9
:101A500000F088F828B1206C04280FD10120BDE8DF
:101A6000F88320684169806900903A4649462046DB
:101A700000F0EDF820B1206C042813D00320EEE72D
:101A8000F5B2B8F1010F09D02168300A08613A4671
:101A90004946204600F0DBF80028ECD120680561BB
:101AA0000020DCE72068016841F400710160D5E79F
:101AB0000200010070B516460D4604461AE02046A5
:101AC000FFF71CFF08B1012070BD681C12D025B1C2
:101AD000FFF794F8801BA8420CD954F8400F40F04F
:101AE000200044F810090020206020216173207339
:101AF000032070BD20684069C0434007DFD4002048
:101B000070BD2DE9F0471E4690460D460446C1F3D0
:101B10000747DDF8209012E0701C10D02EB1FFF7BF
:101B20006DF8A0EB0900B04209D9002044F8300F4D
:101B300020216173A07320730320BDE8F087206823
:101B4000012F0AD0806925EA00000004000C06D0AD
:101B500000214145E0D00020EFE74069F3E7012193
:101B6000F7E700002DE9F0479A4691460D460446F6
:101B700000264FF02008C1F307472AE0206840699B
:101B8000C043400512D42068016841F4007101602F
:101B900021686FF48060486104202064266384F823
:101BA0003D8084F83C600120BDE8F087B9F1FF3F3B
:101BB0000FD0B9F1000F05D0FFF720F8A0EB0A0114
:101BC000494506D944F8306F84F80D802673032008
:101BD000EAE72068012F07D0D0F8180025EA0000B6
:101BE0000004000CE0D0C9E74069F7E72DE9F041B7
:101BF000002590460E460446202721E04069C04358
:101C0000C0060CD421686FF010004861256425637C
:101C100084F83D7084F83C500120BDE8F0812EB17D
:101C2000FEF7ECFFA0EB0800B04209D954F8400FD2
:101C300040F0200044F80409677025700320ECE7A9
:101C400020684169C9434906D8D40020E5E770B54A
:101C500016460D4604461AE02046FFF74FFE08B12F
:101C6000012070BD681C12D025B1FEF7C7FF801B94
:101C7000A8420CD954F8400F40F0200044F8100955
:101C800000202060202161732073032070BD206834
:101C90004069C0430006DFD4002070BD2DE9FF4F2E
:101CA00099B00020DDE929A5DDE92796DDF89880C7
:101CB000059004900390FF4CFD4800902168206837
:101CC000FEF7ACFA0E9061682068FEF7A7FAA168EB
:101CD00083462068FEF7A2FA0C90E1682068FEF7C0
:101CE0009DFA0B9061686068FEF798FA0790A1680A
:101CF0006068FEF793FA0A90E1686068FEF78EFA72
:101D00000990A168A068FEF789FA0290E168A068CE
:101D1000FEF784FA0890E168E068FEF77FFA49462A
:101D200001900846FEF77AFA044641460846FEF757
:101D300075FA1C9907460846FEF770FA3946FEF711
:101D400015FA2146FEF712FA01F04EFE044601464E
:101D50001C98FEF763FA1C9021464046FEF75EFA97
:101D6000269021464846FEF759FA2946279008460C
:101D7000FEF754FA074651460846FEF74FFA044666
:101D800031460846FEF74AFA2146FEF7EFF9394692
:101D9000FEF7ECF901F028FE044601463046FEF756
:101DA0003DFA289021465046FEF738FA2990214600
:101DB0002846FEF733FA2A900C990998FEF7D6F9CF
:101DC0000446129001212A98FEF75AFA80462146CD
:101DD000FEF724FA0546DDE90A01FEF719FA044682
:101DE000139001212998FEF74BFA82462146FEF70F
:101DF00015FA06464FF07C5738460299FEF708FA66
:101E00000199FEF705FA044601212898FEF738FAF1
:101E100081462146FEF702FA3146FEF7A7F9294628
:101E2000FEF7A4F9064659460898FEF7F1F901466F
:101E30004046FEF7F3F9044638460799FEF7E8F9FD
:101E400007460199FEF7E4F901465046FEF7E6F928
:101E50000546DDE90A01FEF789F901464846FEF725
:101E6000DDF92946FEF782F92146FEF77FF905469E
:101E700038460299FEF7CCF901464046FEF7CEF906
:101E8000074659460898FEF771F9014610905046EA
:101E9000FEF7C4F904460C990998FEF7B9F9804693
:101EA00041464846FEF7BAF92146FEF75FF9394642
:101EB000FEF75CF9074629460846FEF7AFF90446E7
:101EC00031460846FEF7AAF92146FEF74FF9FEF71C
:101ED00085FB02F089F8FEF794FB81463C464046BC
:101EE0000121FEF7CDF9834601211098FEF7C8F9CC
:101EF0000D9007990E98FEF78BF90299FEF788F975
:101F00000199FEF733F98246454601212046FEF746
:101F1000B7F929461190FEF781F9FEF75FFB0746F6
:101F200088460198FEF75AFB05460E460298FEF7D2
:101F300055FB04460022604B0291FEF751FA2A46F7
:101F40003346FEF74AFA06460D4601214846FEF79B
:101F500097F98146FEF742FB32462B46FEF743FADD
:101F60003A464346FEF798F9FEF74BFB0646DDE995
:101F70001010FEF753F9054648461399FEF74EF93F
:101F80002946FEF7F3F80299054627460C460798BE
:101F9000FEF724FB0022484BFEF722FA3A4623467E
:101FA000FEF71BFA07460C461198FEF717FB3A4658
:101FB0002346FEF718FA0C46074648461299FEF7E4
:101FC0002DF9FEF70BFB3A462346FEF765F9FEF7BF
:101FD00018FB074629462A98FEF720F90446394699
:101FE0002998FEF71BF92146FEF712F904460D99D0
:101FF0002798FEF713F9804651462698FEF70EF90A
:102000004146FEF705F92146FEF7B0F8814639460C
:102010002898FEF703F9044631462A98FEF7FEF8A1
:102020002146FEF7F5F8044651461C98FEF7F6F8EF
:10203000074659462798FEF7F1F83946FEF7E8F8C3
:102040002146FEF793F8044631462998FEF7E6F854
:10205000064629462898FEF7E1F83146FEF7D8F8FB
:10206000054659462698FEF7D9F806460D991C985C
:10207000FEF7D4F83146FEF7CBF82946FEF776F89E
:10208000054619F0FF4F47D014F0FF4F44D015F02C
:10209000FF4F41D048460099FEF7C0F80599FEF77A
:1020A00065F8064620460099FEF7B8F8049905E061
:1020B000A69BC43C0C0000200000E03FFEF756F851
:1020C000074628460099FEF7A9F80399FEF74EF84F
:1020D000DFF890A1804651464846FEF79FF81999CF
:1020E000FEF744F83146FEF741F819905146204674
:1020F000FEF794F81A99FEF739F83946FEF736F8E4
:102100001A9051462846FEF789F81B99FEF72EF8DB
:102110004146FEF72BF81B90534C1B99E068FEF7E5
:102120007DF805461A99A068FEF778F806466068BB
:10213000199980F00040FEF771F83146FEF768F813
:102140002946FEF765F80099FEF768F82168FEF762
:102150000DF820601A99E068FEF760F806461B99B2
:10216000A068FEF75BF8216805461998FEF756F857
:102170002946FDF7FBFF3146FEF74AF80099FEF7C6
:102180004DF86168FDF7F2FF6060E1681998FEF7AD
:1021900045F806461B996068FEF740F805461A990F
:1021A0002068FEF73BF82946FEF732F83146FDF786
:1021B000DDFF0099FEF732F8A168FDF7D7FFA060B8
:1021C000A1681998FEF72AF806461A996068FEF782
:1021D00025F805461B992068FEF720F82946FDF7EB
:1021E000C5FF3146FEF714F80099FEF717F8E168CD
:1021F000FDF7BCFFE060E168E068FEF70FF8A1685A
:102200000746A068FEF70AF8616805466068FEF7B1
:1022100005F8216806462068FEF700F83146FDF70C
:10222000A5FF2946FDF7A2FF3946FDF79FFF01F004
:10223000DBFB054601462068FDF7F0FF20602946DC
:102240006068FDF7EBFF60602946A068FDF7E6FFD8
:10225000A0602946E068FDF7E1FFE0601DB0BDE841
:10226000F08F0000000090400C0000202DE9F04F9E
:102270008DB007A90A1D07A8811C01F00FFB05A955
:102280000A1D05A8811C01F021FB09A90A1D09A846
:10229000811C01F091FB4A4ABDF914104A4B118090
:1022A000BDF9160050800646BDF918009080454AD9
:1022B0000746BDF91C0010800090BDF91E0050803B
:1022C0008346BDF9200090808246BDF824001A881C
:1022D000801A3E4A00B281461080BDF826005C8814
:1022E000001B00B250808046BDF828009B88C01AB1
:1022F00004B294800846FEF760F94FF06632344B22
:10230000FEF7E3F8FEF77DF905463046FEF755F98E
:102310004FF066322E4BFEF7D8F8FEF772F90646FC
:102320003846FEF74AF94FF06632294BFEF7CDF8F2
:10233000FEF767F907460098FEF736F90B90584606
:10234000FEF732F900905046FEF72EF9019048460C
:10235000FEF72AF981464046FEF726F982462046D6
:10236000FEF722F983463846FEF738F9194FDFF8B1
:1023700068803A464346FEF736F8FEF742F90446CF
:102380003046FEF72BF93A464346FEF72CF8FEF7A7
:1023900038F906462846FEF721F93A464346FEF745
:1023A00022F8FEF72EF9054602A8224680E8000E24
:1023B000314628460B9BFFF771FC0DB0BDE8F08F4E
:1023C00088000020820000201C0000207C000020EB
:1023D00066664040EC51B81E85EB913F2DE9F05FF9
:1023E0000546FFF743FF4B4C01212068FDF748FFEE
:1023F000A168FDF713FF06464FF0404A514660685A
:10240000FDF70CFFE168FDF709FF3146FDF7AEFE71
:10241000FEF7E4F800F020FF4FF0663B5A463E4BD3
:10242000FDF7E1FFFEF7EDF868600121A068FDF718
:1024300027FFA168FDF7F2FE064651466068FDF7EA
:10244000EDFE6168FDF7EAFE3146FDF7E1FE4FF073
:102450007E594946FDF78AFEFEF7C0F807460E464C
:1024600001212068FDF70CFF6168FDF7D7FE80466B
:102470000121A068FDF704FFE168FDF7CFFE4146AA
:10248000FDF774FEFEF7AAF83A46334601F02CF940
:102490005A46214BFDF7A7FFFEF7B3F8A8600121CC
:1024A000E068FDF7EDFEE168FDF7B8FE06460121A4
:1024B000A068FDF7E5FEA168FDF7B0FE3146FDF727
:1024C00055FE4946FDF7A4FEFEF788F806460F467E
:1024D00001212068FDF7D4FEE168FDF79FFE8046EC
:1024E00051466068FDF79AFEA168FDF797FE4146E8
:1024F000FDF78EFEFEF772F832463B4601F0F4F827
:102500005A46054BFDF76FFFFEF77BF82860BDE8E4
:10251000F09F00000C00002066A64C4010B501F0B2
:10252000EDF904484FF07E51016000214160816067
:10253000C16010BD0C0000200D4808B5816941F054
:1025400020018161816901F020010091816941F0E0
:1025500004018161816901F004010091816941F008
:1025600008018161806900F00800009008BD00004A
:10257000001002400D4810B50B4901600C49416044
:1025800000214FF480428160C0E903124161816102
:10259000C1610162FEF738FB002803D0BDE810409E
:1025A000FEF73BBA10BD0000005400405801002067
:1025B000A08601000C4810B50A4901604FF4E131D2
:1025C0004160002181600C22C160C0E90412816178
:1025D000C161FFF7CBF8002803D0BDE81040FEF73B
:1025E0001CBA10BD00440040AC010020FEE770475B
:1025F0000907090E002806DA00F00F0000F1E020BC
:1026000080F8141D704700F1E02080F80014704736
:1026100070477047FEF77EBD30B58FB02821684601
:10262000FDF799FD14210AA8FDF795FD0121080485
:10263000CDE900100024029402250491CDE9075051
:102640004FF4E01009906846FEF7FAFE0F20CDE93E
:102650000A056802CDE90C4002210AA80E94FEF793
:10266000E3FD0FB030BD00000D48016841F00101ED
:10267000016041680B4A1140416001680A4A1140FB
:102680000160016821F480210160416821F4FE01AC
:1026900041604FF41F0181600449C0030860704726
:1026A000001002400000FFF8FFFFF6FE08ED00E01A
:1026B0002DE9F041044600680169E26821F44051C7
:1026C000114301612169A0680843616908432168D9
:1026D000CA6841F20C639A430243CA6020684169A8
:1026E000A26921F44071114341614C49206864257D
:1026F000322688423CD1FEF75DFE00EBC00101EBC3
:10270000001061688900B0FBF1F7FEF753FE00EBA3
:10271000C00101EB00106168B0468900B0FBF1F028
:10272000B0FBF5F06FF01801484307EB800106EBB2
:102730000110B0FBF5F000F0F006FEF73BFE00EBF9
:10274000C00101EB001061688900B0FBF1F0B0FB43
:10275000F5F006EB0016FEF72DFE00EBC00101EBD5
:10276000001061688900B0FBF1F7FEF723FE3BE043
:10277000FEF710FE00EBC00101EB0010616889005C
:10278000B0FBF1F7FEF706FE00EBC00101EB001015
:102790006168B0468900B0FBF1F0B0FBF5F06FF076
:1027A0001801484307EB800106EB0110B0FBF5F080
:1027B00000F0F006FEF7EEFD00EBC00101EB0010AB
:1027C00061688900B0FBF1F0B0FBF5F006EB001694
:1027D000FEF7E0FD00EBC00101EB0010616889002D
:1027E000B0FBF1F7FEF7D6FD00EBC00101EB0010E6
:1027F00061688900B0FBF1F0B0FBF5F06FF01801F3
:10280000484307EB800108EB0110B0FBF5F02168AD
:1028100000F00F0030448860BDE8F08100380140CE
:102820002DE9F041984617460E460446069D1DE0E8
:10283000681C1BD02DB1FEF7E1F9A0EB0800A842FF
:1028400014D92068C16821F4D071C1602068416941
:1028500021F001014161202084F8390084F83A0018
:10286000002084F838000320BDE8F081206800686B
:1028700036EA000004D00020B842D9D00020F3E7A7
:102880000120F9E7FEE700000FB4054B10B503A9DE
:10289000044A029800F05CF910BC5DF814FB0000DB
:1028A00085380008A0000020490050EAC12018BF68
:1028B00004204A0D18BF40F0010040F2FF72B2EB55
:1028C000515F08BF40F00200012808BF0520704793
:1028D0002DE9F0414F1E00EBC7010446D1E900018C
:1028E00015461E4637F006020DD02A463346FDF740
:1028F0007AFD7F1E04EBC703D3E90023FDF7CCFC70
:1029000037F00602F1D1022F25D0042F13D0062F65
:1029100018BFBDE8F0812A463346FDF764FDD4E9CF
:102920000A23FDF7B9FC2A463346FDF75CFDD4E9DE
:102930000823FDF7B1FC2A463346FDF754FDD4E9E0
:102940000623FDF7A9FC2A463346FDF74CFDD4E9E2
:102950000423FDF7A1FC2A463346FDF744FDD4E9E4
:102960000223FDF799FC2A463346FDF73CFDD4E9E6
:102970000023BDE8F041FDF78FBC0122FDF759BFF0
:10298000FDF78ABC0022134610461146FDF79DBD97
:10299000024A00201107FDF74CBF000001FDFFFFB8
:1029A00002E008C8121F08C1002AFAD17047704718
:1029B000002001E001C1121F002AFBD17047000076
:1029C0000149086070470000A40000202DE9FF5F66
:1029D00082B00021DDE90430020DDDF840B0034390
:1029E00018D044F61050A2F2FF3242431514119849
:1029F00001281FD0A5EB0B00401C5FEA000A4FF036
:102A000000064E4FDFF83891B046504615D5CAF152
:102A1000000413E0119801244AA3012801D16FEAB0
:102A20000B010298119AC0E90031C0E9024206B0D8
:102A3000BDE8F09FCBF10000DFE704460021404AEB
:102A4000491842EB0450CDE9001012E0E00707D02E
:102A500032463B4640464946FDF7C5FC804689461E
:102A600032463B4610461946FDF7BDFC06460F466A
:102A70006410002CEAD1DDE90401DDE90023BAF19C
:102A8000000F06DAFDF7AFFC42464B46FDF7ABFC04
:102A900005E0FDF71AFD42464B46FDF716FD0446DC
:102AA0000E460022284BFDF75DFF03D84FF0FF30A4
:102AB000014607E00022254B20463146FDF7ECFB9E
:102AC000FDF71FFF102409E0002C0ADB0A22002377
:102AD000FDF7C9FD039B30321A55641E50EA01020E
:102AE000F2D1641C039AC4F111031444119A012A0F
:102AF00003D0012208430DD10AE0084304D000208E
:102B00004FF0110B119072E7A3EB0B056D1E0DE05A
:102B10005B4504DD4FF0000205F1010504E003DA36
:102B20004FF00002A5F10105002AECD0029811999E
:102B3000C0E90231C0E9004579E700000000144017
:102B40000000F03F300000000000F0430000E03FD4
:102B50002DE9FF4F95B09A46884606460025EEE1DE
:102B6000252877D100242746F94A0121039400E063
:102B7000044316F8013F203B01FA03F01042F7D15D
:102B800030782A2811D06FF02F033078A0F130026E
:102B9000092A16D8039A44F0020402EB820203EBDE
:102BA00042021044761C0390EFE758F8042B03927E
:102BB000002A03DA504244F40054039044F0020423
:102BC000761C30782E2816D116F8010F44F0040434
:102BD0002A280DD06FF02F023078A0F13003092B96
:102BE00009D807EB870302EB4303C718761CF3E70A
:102BF00058F8047B761C30786C280FD006DC4C2803
:102C000017D068280DD06A2814D104E0742810D099
:102C10007A280FD10DE044F400140AE044F4801443
:102C200001E044F440147278824202D104F5801429
:102C3000761C761C307866280BD013DC582877D0A9
:102C400009DC002875D04528F6D04628F4D047285E
:102C50001AD193E118E0632835D0642879D065282B
:102C600012D18BE1702873D008DC6728F1D0692875
:102C70006FD06E280DD06F2806D1ACE073282CD011
:102C8000752874D0782853D05246179990476D1CF8
:102C900054E1C4F30250022809D003280DD0D8F81B
:102CA000001004280DD00D6008F1040846E1D8F8A2
:102CB0000010EA17C1E90052F6E7D8F800100D80BD
:102CC000F2E70D70F0E718F8041B8DF800100020F3
:102CD0008DF80100EB46012003E058F804BB4FF0EB
:102CE000FF3061074FF0000102D40DE009F101014E
:102CF0008946B9420FDA8145F8DB1BF80910002933
:102D0000F4D108E009F1010189468142FADB1BF8A0
:102D100009100029F6D103985346A0EB0907214674
:102D20003846179A00F080FA284400EB090507E0BE
:102D300044E008E10DE01BF8010B5246179990475B
:102D4000B9F10109F7D2534621463846179AF2E005
:102D500039E00A21C4F302524FF0000B0091022A1D
:102D600006D058F8040BC117032A09D00AE023E063
:102D700008F1070020F00702F2E80201904605E0A2
:102D800000B2C117042A01D140B2C117002906DAE6
:102D90000A460021404261EB02012D2202E0220599
:102DA00004D52B228DF80420012203E0E20701D094
:102DB0002022F7E7914657E00A2100E010214FF06A
:102DC000000B00910BE010214FF0000B44F00404C5
:102DD0000827009103E008204FF0000B0090C4F397
:102DE0000252022A05D058F8040B0021032A08D009
:102DF00008E008F1070020F00702F2E8020190461F
:102E000003E080B2042A00D1C0B24FF000092207CB
:102E10002AD53278702A07D0DDF800C08CF0100C6B
:102E20005CEA0B0C05D00EE040228DF80420012254
:102E300008E050EA010306D030238DF804308DF805
:102E4000052002229146009B83F0080353EA0B03FE
:102E50000AD150EA010201D1620705D530228DF86E
:102E600004204FF001097F1E3278582A04D039A27D
:102E70000C920CAA02920BE03BA2F9E75B46009A87
:102E8000FDF7F1FB0C9B9B5C029A521E02921370A1
:102E900050EA0102F2D1029804A9081A00F1200BAD
:102EA000600702D524F4803400E001275F4502DD8D
:102EB000A7EB0B0000E0002000EB0B010090039853
:102EC0004944401A0390E00306D453462146179A1A
:102ED000039800F0A9F90544002706E001A852462E
:102EE000C05D179990476D1C7F1C4F45F6DBE003D2
:102EF0000CD553462146179A039800F095F90544DE
:102F000004E030205246179990476D1C0099481EE6
:102F100000900029F5DC08E00298029952460078FA
:102F2000491C0291179990476D1CBBF10001ABF150
:102F3000010BF1DC5BE100F065F90544761C3078AB
:102F400000287FF40DAE19B02846BDE8F08F0000D0
:102F5000092801003031323334353637383961626F
:102F60006364656600000000303132333435363733
:102F7000383941424344454600000000600700D410
:102F8000062708F1070020F00700F0E8022380463A
:102F900003F0004C5FEA0C0001D097A009E0200587
:102FA00001D596A005E0E00701D095A001E0AFF2C1
:102FB0004C001390307823F0004365280CD006DCD9
:102FC000452809D046281DD047287FD13BE06628F8
:102FD00018D067287AD136E00021112F01DB1120AB
:102FE00000E0781CCDE9000104A90CA8FFF7EEFC75
:102FF000DDE90D010C9A4FF0000B07F10109109269
:1030000000914EE04FF000400097CDE9011004A977
:103010000CA8FFF7DBFCDDE90D020C9B0F994FF0CC
:10302000000B91461093009211B9791C00EB010935
:10303000B7EB090003D4C0F1FF3B07F10109A9EB8D
:103040000700019042E0012F00DA01270021112F33
:1030500001DD112000E03846CDE9000104A90CA8EB
:10306000FFF7B4FCDDE90D010C9A00914FF0000B65
:10307000B946109221070FD4009A4A4503DA9146C7
:1030800001E0A9F10109B9F1010F05DD109AA9F1DB
:103090000101515C3029F4D0B84202DA10F1040F7A
:1030A00003DA0121CDE9011010E0002803DC83449C
:1030B000A9EB000102E0411C494500DD8946A0EB77
:1030C0000B00401C01904FF000400290200705D4F7
:1030D0000198484502DB4FF0FF30019000208DF849
:1030E0004B0002980DF14B07B0F1004F25D00220A4
:1030F0000C902B200D90029800280CDA4042029090
:103100002D200D9007E00A210298FDF796FA303144
:10311000029007F8011D0C99481E0C900029F2DC62
:1031200002980028EFD1791E0D980870307800F0D1
:10313000200040F0450007F8020D11A8C01BC01D7B
:1031400002901398007800B1012000EB090101986A
:1031500001EBE071029801440398401A401E03906D
:10316000E00306D453462146179A039800F05CF812
:1031700005441398007818B15246179990476D1C72
:10318000E00323D553462146179A039800F04CF8E4
:1031900005441BE0BBF1000F07DB0098584504DD38
:1031A0001098179910F80B0001E01799302052463B
:1031B000904701980BF1010B401E05F101050190AC
:1031C00004D12E205246179990476D1CB9F1000189
:1031D000A9F10109DEDC05E017F8010B5246179949
:1031E00090476D1C0299481E02900029F4DC53465A
:1031F0002146179A03989EE62D0000002B00000040
:10320000200000002DE9F041044600251E46174627
:10321000880404D405E039462020B0476D1C641EA4
:10322000F9D52846BDE8F0812DE9F0410446002596
:103230001E469046C80301D5302700E020278804A9
:1032400004D505E041463846B0476D1C641EF9D5EB
:103250002846BDE8F08100002DE9F04D8D4F21F0AA
:10326000004A86B005460C46BA452ADBAAEB0700A1
:1032700028430AD08848824501DC1AD1CDB106B076
:103280002846BDE8F04DFFF778BB844A844B2846BA
:10329000FDF7A9F807460E46824A834B2846214689
:1032A000FDF7A1F806B03A463346BDE8F04DFCF70D
:1032B000F3BF0120FFF784FB06B0BDE8F04DFFF738
:1032C00061BB7A48824542DABAF1795F0BDA284667
:1032D000FFF7EAFA042808BFFFF75AFB284606B0B2
:1032E0002146BDE8F08D2A460B461046FDF77BF8D7
:1032F000834602466E480E460B4606217844FFF789
:10330000E7FA5A463346FDF76EF8804669488A4622
:103310005A46334604217844FFF7DAFA5A463346D0
:10332000FDF761F800223B46FCF7B6FF02460B466C
:1033300040465146FDF7C9F82A462346FDF753F8A3
:1033400006B02A462346BDE8F04DFCF7A5BF284647
:1033500024F0004100223D463B46FDF741F84FF086
:10336000FF32FDF766FA0646024653480F460B4603
:1033700006217844FFF7ACFA32463B46FDF733F8B6
:10338000CDE900014D4832463B4604217844FFF721
:103390009FFA32463B46FDF726F800222B46FCF703
:1033A0007BFF834602913046394600F01DFE804681
:1033B00043480D46504517DCDDE900015A46029BA3
:1033C000FDF783F842462B46FDF70DF842462B46A3
:1033D000FCF762FF0122FDF72CFA304A304BFCF774
:1033E000FCFF304A304B4CE04FF0000A52460B468F
:1033F0004046FCF751FFCDE9031052462B461046DC
:103400001946FCF7F0FF32463B46FCF7E9FFDDE9E1
:103410000332FDF75AF806460F46DDE900015A4629
:10342000029BFDF752F8834600910122304639464F
:10343000FDF7FFF9194A1A4BFCF7D2FF06460F4673
:10344000012240462946FDF7F4F95A46009BFCF755
:10345000CAFF32463B46FCF7C0FF06460F46012234
:1034600050462946FDF7E5F90E4DDFF858802A460B
:103470004346FCF7B5FF32463B46FCF7B1FF2A4610
:103480004346FCF7ADFF002CD8BF81F0004106B0E9
:10349000BDE8F08D0000F03F0000F07F075C1433C2
:1034A00026A6913C182D4454FB21F93F0000E03F33
:1034B000500D0000660D0000DA0C0000F00C00005A
:1034C0003333EF3FFB21E93F2DE9F84F04460D462A
:1034D00021F0004000917349814211DC7249884219
:1034E00001DC06D12CB120462946BDE8F84FFFF794
:1034F00044BA6E48002DCCBF6D496E49BDE8F88FC7
:103500006D49814211DD6D498142D8BF4FF0FF36D0
:103510006DDD20462946FFF7C7F9042808BFFFF7ED
:1035200037FA20462946BDE8F88F6549654F25F0F2
:103530000045814233DD6449814219DD002632466F
:103540004FF0804320462946FCF7A6FE80468A4677
:10355000012220462946FDF76CF900223B46FCF784
:103560003CFF42465346FCF7B0FF04460D463EE0A2
:1035700001260022BA463B4620462946FCF78CFE2F
:1035800080460F460022534620462946FCF725FF79
:1035900042463B46FCF799FF04460D4627E04B495F
:1035A00081421BDDDFF828A1022600225346204677
:1035B0002946FCF718FF00223B46FCF76DFE8046CB
:1035C0000F460022534620462946FCF706FF424696
:1035D0003B46FCF77AFF04460D4608E003262246E8
:1035E0002B4600203B49FCF770FF04460D4622465F
:1035F0002B4610461946FCF7F6FE8B4682460246DD
:103600000B46FCF7F0FE07460246334888460B4659
:1036100006217844FFF75CF952465B46FCF7E3FE6F
:1036200082462E488B463A46434605217844FFF7AA
:103630004FF93A464346FCF7D6FE02460B46002EAB
:10364000504659460CDAFCF727FE22462B46FCF77B
:10365000CAFE01B022462B46BDE8F04FFCF7C0BEC3
:10366000FCF71AFE22462B46FCF7BDFE1C4A7A44A4
:1036700002EBC603D3E90023FCF7AFFE22462B463C
:10368000FCF7ABFE174A7A4402EBC603D3E90023EA
:10369000FCF7A6FE009A002AB8BF81F00041BDE801
:1036A000F88F0000000010440000F07F182D4454F3
:1036B000FB21F93FFB21F9BF0000DC3F0000203E69
:1036C0000000F33F0000F03F0000E63F00800340B1
:1036D0000000F83F0000F0BFF20A0000B00A00004E
:1036E0004E0A0000160A00002DE9F04D9446CCF178
:1036F000000423F000464CEA0404594F46EAD4740F
:103700009A46884621F00042BC4206D8454240EA2B
:10371000050442EAD474BC4204D9BDE8F04D6246C7
:10372000FFF72EB9AAF14055A5F17F6555EA0C04C3
:103730000BD0022404EAAA744A4DDFF82CE144EAD3
:10374000D87452EA000B04D00CE0BDE8F04DFFF74E
:10375000BBBE002C14BF012CBDE8F08D022C30D074
:10376000032C32D056EA0C0B0AD0BE4220D1BA420A
:1037700009D126F0804622F080423346114617E0F8
:1037800000291ADB25E0DFF8E4B0FB44002C04BF7D
:10379000DBE90001BDE8F08D012C02BFDBE900018F
:1037A00081F00041BDE8F08D022C0AD0032C0CD032
:1037B000BA4212D1B8F1000F0BDA2A482C49BDE801
:1037C000F08D28462B49BDE8F08D28467146BDE8AE
:1037D000F08D24482849BDE8F08D921B12153C2A33
:1037E000C4BF204F244E10DCBAF1000FBEBF12F14F
:1037F0003C0F00273E4608DB6246FCF766FE21F0E0
:103800000041FFF761FE07460E4694B1012C08BF48
:1038100086F000460DD0194A194B022C3846314625
:1038200015D0FCF7DAFD2A46BDE8F04D114BFCF748
:10383000D4BD0022134638463146FDF77BF804BF5D
:103840000220FFF7BDF838463146BDE8F08DFCF7A1
:10385000C4FD2A46BDE8F04D064BFCF7C1BD000093
:103860000000F07F182D4454FB2109C0AA09000074
:10387000FB21F9BFFB210940FB21F93F075C143311
:1038800026A6A13C13B54FF6FF73012269460248F4
:10389000FDF7D6FF00981CBDAC0100200A4B30B4E8
:1038A0001B78032B0ED000280CD000290AD0002A48
:1038B00008D0054C03EB4303241D04EBC3031B6931
:1038C00030BC184730BC7047240000200A4B30B48D
:1038D0001B78032B0ED000280CD000290AD0002A18
:1038E00008D0054C03EB4303241D04EBC303DB6842
:1038F00030BC184730BC70472400002070B517A0BA
:10390000FEF7C2FF0A20FDF789F81C4E0024351F80
:1039100004EB440006EBC000406850B1804740B162
:1039200016482C70483050F8241015A0FEF7ACFF54
:1039300003E0641CE4B2032CEAD32878032807D000
:1039400000EB400006EBC0008068BDE87040004717
:10395000BDE870400CA0FEF797BF00000D0A53654C
:103960006E736F72207261772064617461205B7680
:10397000302E395D2E200D0A0000000028000020A6
:103980000D0A25730D0A00000D0A696E7673656EC7
:103990007365206D6F74696F6E2073656E736F72DF
:1039A0002068617665206E6F7420636F6E6E65634C
:1039B000742E200D0A0000000A4B30B41B78032B34
:1039C0000ED000280CD000290AD0002A08D0054CBF
:1039D00003EB4303241D04EBC3035B6930BC1847AE
:1039E00030BC70472400002010B504464FF0FF3172
:1039F000FCF746FC0849A1EB64042146FCF70EFCE9
:103A00002146FCF70BFC4FF07F51FCF704FC2146EC
:103A1000BDE81040FCF702BCDF59375F2DE9F047E5
:103A200086B081460020009001900290039004909F
:103A3000924688462E20FCF7C1FF60F307042D2034
:103A4000FCF7BCFF60F30F24ADF800403020FCF71A
:103A5000B5FF60F307042F20FCF7B0FF60F30F24DD
:103A6000ADF802403220FCF7A9FF60F307043120D3
:103A7000FCF7A4FF60F30F24ADF804400F4D0024C1
:103A80006E4602AF04EBC40005EB400007EB840375
:103A900036F91420811C00F013F8641CE4B2032CE6
:103AA000F0D30298A9F800000398A8F80000049841
:103AB000AAF8000006B0BDE8F0870000DE00002094
:103AC00030B504786500641C04704A53027802F033
:103AD000070202700020186031F910401A68401C7B
:103AE0002244C0B21A600828F6D3D010186030BD46
:103AF00010B500242046FCF761FFEA2800D101241C
:103B0000204610BD2DE9F04786B08046002089464A
:103B10002A490090019002900390049008889246F0
:103B2000401C08803420FCF749FF60F30704332071
:103B3000FCF744FF60F30F24ADF800403620FCF79B
:103B40003DFF60F307043520FCF738FF60F30F24D6
:103B5000ADF802403820FCF731FF60F3070437204E
:103B6000FCF72CFF60F30F24ADF80440144D002443
:103B70006E4602AF04EBC40005EB400007EB840384
:103B800036F91420811CFFF79BFF641CE4B2032C60
:103B9000F0D30A480299801C0288891AA8F80010FC
:103BA00042880399891AA9F8001080880499081A94
:103BB000AAF8000006B0BDE8F0870000020000206F
:103BC000A8000020FEB500217F20FCF70FFF012197
:103BD0000620FCF70BFF0A20FCF720FF012106203E
:103BE000FCF704FF20217F20FCF700FF07210020C5
:103BF000FCF7FCFE35210120FCF7F8FE072111201F
:103C0000FCF7F4FE31211420FCF7F0FE00217F20A8
:103C1000FCF7ECFE6420FCF701FF0020ADF800008B
:103C2000ADF80400ADF80800074606460546044610
:103C300002AA01A96846FFF765FFBDF90000074425
:103C4000BDF904000644BDF9080005440A20FCF74C
:103C5000E5FE641CE4B2202CEAD30A4879116B46D5
:103C600001807111418069118180022200218C2024
:103C700000F06EF803B00422BDE8F04031210C20C2
:103C800000F0AFB8040000202DE9F0478CB080466A
:103C900014240020079092468946089000900190D5
:103CA00002900A20FCF7BAFE09AB012210218C20F9
:103CB00000F04EF89DF82400C00713D0B4B109AB52
:103CC000062211218C2000F043F8BDF82400ADF845
:103CD0001C00BDF82600ADF81E00BDF82800ADF8A8
:103CE000200006E0641E14F0FF04DAD112A0FEF7F3
:103CF000CBFD164D002407AE6F4600BF04EBC40099
:103D000005EB400007EB840336F91420811CFFF714
:103D1000D7FE641CE4B2032CF0D30098A8F800008E
:103D200001984042A9F8000002984042AAF8000019
:103D30000CB0BDE8F08700000D0A204D61672069D6
:103D400073206275737379200D0A0000140100203E
:103D50002DE9F0410F4604461E46154630217F20CE
:103D6000FCF744FE21460320FCF740FE39460420C0
:103D7000FCF73CFE45F080010520FCF737FE0021F2
:103D80007F20FCF733FE0320FCF718FE40F02004F0
:103D900021460320FCF72AFE0520FCF73FFE24F015
:103DA00020010320FCF722FE002407E004F13B0081
:103DB000C0B2FCF703FE3055641CE4B2AC42F5D34C
:103DC00030217F20FCF712FE0520FCF7F7FD0146AD
:103DD0000520FCF70BFEBDE8F04100217F20FCF739
:103DE00005BE70B50D460446164630217F20FCF70F
:103DF000FDFD21460720FCF7F9FD29460820FCF7C8
:103E0000F5FD31460A20FCF7F1FD81210920FCF780
:103E1000EDFD00217F20FCF7E9FD0320FCF7CEFD3E
:103E200040F0200421460320FCF7E0FD0520FCF7CC
:103E3000F5FD24F020010320FCF7D8FD30217F2080
:103E4000FCF7D4FD0520FCF7B9FD01460520FCF781
:103E5000CDFDBDE8704000217F20FCF7C7BD00000C
:103E60001FB5FDF75FF9FEF7D7FBFEF765FBFEF721
:103E700081FBFEF79FFB23A0FEF706FDFEF74EFB3E
:103E8000DFF8A490274C09F1060AA9F1060B254892
:103E9000FEF7A4FA2548FEF7F7FC2068FCF79EFB26
:103EA000074688466068FCF799FB05460E46A06801
:103EB000FCF794FB8DE8E00102460B461CA0FEF7E0
:103EC000E3FCB9F90430B9F90220B9F9001024A0D3
:103ED000FEF7DAFCBAF90430BAF90220BAF9001098
:103EE0002BA0FEF7D1FCBBF90430BBF90220BBF9D3
:103EF000001032A0FEF7C8FC4FF4FA70FCF78EFDFC
:103F0000C5E700000A49434D2D323039343820547A
:103F10006573742050726F6772616D202E2E2E0DA6
:103F20000A0000004C010020820000205C410008D3
:103F30000D0A20526F6C6C3A20252E32662020200C
:103F4000202050697463683A20252E326620202094
:103F500020205961773A20252E3266200D0A000074
:103F60000D0A20416363656C65726174696F6E3A16
:103F700020583A2025642020202020593A2025640A
:103F800020202020205A3A202564200D0A0000001D
:103F90000D0A204779726F73636F70653A20583A43
:103FA0002025642020202020593A2025642020202C
:103FB00020205A3A202564200D0A00000D0A204DC9
:103FC00061676E657469633A20583A202564202041
:103FD000202020593A20256420202020205A3A20F1
:103FE0002564200D0A0000002DE9F04106460F4629
:103FF000FCF736FC041E0D4618BF0120284320F0B4
:104000000040C0F17F6000F1E040C00F0ED0301CD6
:1040100018BF0120384320F00040C0F17F6000F15C
:10402000E040C00F04BF0120FEF7CAFC204629462D
:10403000BDE8F08100000000000000000102030460
:104040000607080900000000010203040000000048
:10405000555555555555C53F7D6FEB0312D6D4BF09
:104060005544880E55C1C93F3B8F68B52882A4BF0F
:1040700088B20175E0EF493F09F7FD0DE13D023FD0
:104080004B2D8A1C273A03C0C88A599CE52A004058
:1040900059018D1B6C06E6BF82922EB1C5B8B33FA5
:1040A0004FBB610567ACDD3F182D4454FB21E93F50
:1040B0009BF681D20B73EF3F182D4454FB21F93F3F
:1040C000E2652F227F2B7A3C075C143326A6813CC5
:1040D000BDCBF07A8807703C075C143326A6913C70
:1040E000C4EB98999999C9BF711623FEC671BCBFDC
:1040F0006D9A74AFF2B0B3BF9AFDDE522DDEADBF44
:104100002F6C6A2C44B4A2BF0D5555555555D53F5B
:10411000FF8300922449C23F6E204CC5CD45B73F76
:10412000513DD0A0660DB13FEB0D76244B7BA93FEE
:1041300011DA22E33AAD903F0000000000000000D9
:104140004D6F74696F6E20736572736F722069733F
:104150002049434D2D323039343800000D0A202FCC
:104160002D2D2D2D2D2D2D2D2D2D2D2D2D2D2D2D7F
:104170002D2D2D2D2D2D2D2D2D2D2D2D2D2D2D2D6F
:104180002D2D2D2D2D2D2D2D2D2D2D2D2D2D2D2D5F
:104190002D2D2D2D2D2D2D2D2D2D2D2D2D2F200D7A
:1041A0000A000000C441000800000020A800000030
:1041B000A02900086C420008A80000204805000063
:1041C000B0290008D000000000000000000000003E
:1041D00000000000000000000000000000000000DF
:1041E00000000000000000000300000002000000CA
:1041F000F13A0008C53B0008053B00081D3A0008DD
:10420000893C0008000000000000000000000000E1
:10421000000000000000000000000000000000009E
:10422000000000000000000000000000000000008E
:1042300000000000404100080000000000000000F5
:10424000000000000000000000000000000000006E
:10425000000000000100000010000000000000004D
:0C42600000A24A04000000000000000062
:04000005080000ED02
:00000001FF
